{"abi":[{"type":"constructor","inputs":[{"name":"_initialOwner","type":"address","internalType":"address"}],"stateMutability":"nonpayable"},{"type":"function","name":"DEFAULT_ADMIN_ROLE","inputs":[],"outputs":[{"name":"","type":"bytes32","internalType":"bytes32"}],"stateMutability":"view"},{"type":"function","name":"MINTER_ROLE","inputs":[],"outputs":[{"name":"","type":"bytes32","internalType":"bytes32"}],"stateMutability":"view"},{"type":"function","name":"OPERATOR_ROLE","inputs":[],"outputs":[{"name":"","type":"bytes32","internalType":"bytes32"}],"stateMutability":"view"},{"type":"function","name":"addMinter","inputs":[{"name":"minter","type":"address","internalType":"address"}],"outputs":[],"stateMutability":"nonpayable"},{"type":"function","name":"addOperator","inputs":[{"name":"operator","type":"address","internalType":"address"}],"outputs":[],"stateMutability":"nonpayable"},{"type":"function","name":"allowance","inputs":[{"name":"owner","type":"address","internalType":"address"},{"name":"spender","type":"address","internalType":"address"}],"outputs":[{"name":"","type":"uint256","internalType":"uint256"}],"stateMutability":"view"},{"type":"function","name":"approve","inputs":[{"name":"spender","type":"address","internalType":"address"},{"name":"value","type":"uint256","internalType":"uint256"}],"outputs":[{"name":"","type":"bool","internalType":"bool"}],"stateMutability":"nonpayable"},{"type":"function","name":"balanceOf","inputs":[{"name":"account","type":"address","internalType":"address"}],"outputs":[{"name":"","type":"uint256","internalType":"uint256"}],"stateMutability":"view"},{"type":"function","name":"burn","inputs":[{"name":"amount","type":"uint256","internalType":"uint256"}],"outputs":[],"stateMutability":"nonpayable"},{"type":"function","name":"burnCredits","inputs":[{"name":"amount","type":"uint256","internalType":"uint256"}],"outputs":[],"stateMutability":"nonpayable"},{"type":"function","name":"burnFrom","inputs":[{"name":"from","type":"address","internalType":"address"},{"name":"amount","type":"uint256","internalType":"uint256"}],"outputs":[],"stateMutability":"nonpayable"},{"type":"function","name":"decimals","inputs":[],"outputs":[{"name":"","type":"uint8","internalType":"uint8"}],"stateMutability":"view"},{"type":"function","name":"getRoleAdmin","inputs":[{"name":"role","type":"bytes32","internalType":"bytes32"}],"outputs":[{"name":"","type":"bytes32","internalType":"bytes32"}],"stateMutability":"view"},{"type":"function","name":"getTotalBurnedCredits","inputs":[],"outputs":[{"name":"","type":"uint256","internalType":"uint256"}],"stateMutability":"view"},{"type":"function","name":"getUserBurnedCredits","inputs":[{"name":"user","type":"address","internalType":"address"}],"outputs":[{"name":"","type":"uint256","internalType":"uint256"}],"stateMutability":"view"},{"type":"function","name":"grantRole","inputs":[{"name":"role","type":"bytes32","internalType":"bytes32"},{"name":"account","type":"address","internalType":"address"}],"outputs":[],"stateMutability":"nonpayable"},{"type":"function","name":"hasRole","inputs":[{"name":"role","type":"bytes32","internalType":"bytes32"},{"name":"account","type":"address","internalType":"address"}],"outputs":[{"name":"","type":"bool","internalType":"bool"}],"stateMutability":"view"},{"type":"function","name":"isMinter","inputs":[{"name":"minter","type":"address","internalType":"address"}],"outputs":[{"name":"","type":"bool","internalType":"bool"}],"stateMutability":"view"},{"type":"function","name":"isOperator","inputs":[{"name":"operator","type":"address","internalType":"address"}],"outputs":[{"name":"","type":"bool","internalType":"bool"}],"stateMutability":"view"},{"type":"function","name":"mint","inputs":[{"name":"to","type":"address","internalType":"address"},{"name":"amount","type":"uint256","internalType":"uint256"}],"outputs":[],"stateMutability":"nonpayable"},{"type":"function","name":"name","inputs":[],"outputs":[{"name":"","type":"string","internalType":"string"}],"stateMutability":"view"},{"type":"function","name":"operatorBurn","inputs":[{"name":"user","type":"address","internalType":"address"},{"name":"amount","type":"uint256","internalType":"uint256"}],"outputs":[],"stateMutability":"nonpayable"},{"type":"function","name":"owner","inputs":[],"outputs":[{"name":"","type":"address","internalType":"address"}],"stateMutability":"view"},{"type":"function","name":"removeMinter","inputs":[{"name":"minter","type":"address","internalType":"address"}],"outputs":[],"stateMutability":"nonpayable"},{"type":"function","name":"removeOperator","inputs":[{"name":"operator","type":"address","internalType":"address"}],"outputs":[],"stateMutability":"nonpayable"},{"type":"function","name":"renounceOwnership","inputs":[],"outputs":[],"stateMutability":"nonpayable"},{"type":"function","name":"renounceRole","inputs":[{"name":"role","type":"bytes32","internalType":"bytes32"},{"name":"callerConfirmation","type":"address","internalType":"address"}],"outputs":[],"stateMutability":"nonpayable"},{"type":"function","name":"revokeRole","inputs":[{"name":"role","type":"bytes32","internalType":"bytes32"},{"name":"account","type":"address","internalType":"address"}],"outputs":[],"stateMutability":"nonpayable"},{"type":"function","name":"supportsInterface","inputs":[{"name":"interfaceId","type":"bytes4","internalType":"bytes4"}],"outputs":[{"name":"","type":"bool","internalType":"bool"}],"stateMutability":"view"},{"type":"function","name":"symbol","inputs":[],"outputs":[{"name":"","type":"string","internalType":"string"}],"stateMutability":"view"},{"type":"function","name":"totalBurnedCredits","inputs":[],"outputs":[{"name":"","type":"uint256","internalType":"uint256"}],"stateMutability":"view"},{"type":"function","name":"totalSupply","inputs":[],"outputs":[{"name":"","type":"uint256","internalType":"uint256"}],"stateMutability":"view"},{"type":"function","name":"transfer","inputs":[{"name":"to","type":"address","internalType":"address"},{"name":"value","type":"uint256","internalType":"uint256"}],"outputs":[{"name":"","type":"bool","internalType":"bool"}],"stateMutability":"nonpayable"},{"type":"function","name":"transferFrom","inputs":[{"name":"from","type":"address","internalType":"address"},{"name":"to","type":"address","internalType":"address"},{"name":"value","type":"uint256","internalType":"uint256"}],"outputs":[{"name":"","type":"bool","internalType":"bool"}],"stateMutability":"nonpayable"},{"type":"function","name":"transferOwnership","inputs":[{"name":"newOwner","type":"address","internalType":"address"}],"outputs":[],"stateMutability":"nonpayable"},{"type":"function","name":"userBurnedCredits","inputs":[{"name":"","type":"address","internalType":"address"}],"outputs":[{"name":"","type":"uint256","internalType":"uint256"}],"stateMutability":"view"},{"type":"event","name":"Approval","inputs":[{"name":"owner","type":"address","indexed":true,"internalType":"address"},{"name":"spender","type":"address","indexed":true,"internalType":"address"},{"name":"value","type":"uint256","indexed":false,"internalType":"uint256"}],"anonymous":false},{"type":"event","name":"CreditsBurned","inputs":[{"name":"user","type":"address","indexed":true,"internalType":"address"},{"name":"amount","type":"uint256","indexed":false,"internalType":"uint256"},{"name":"userTotal","type":"uint256","indexed":false,"internalType":"uint256"},{"name":"globalTotal","type":"uint256","indexed":false,"internalType":"uint256"}],"anonymous":false},{"type":"event","name":"CreditsMinted","inputs":[{"name":"to","type":"address","indexed":true,"internalType":"address"},{"name":"amount","type":"uint256","indexed":false,"internalType":"uint256"}],"anonymous":false},{"type":"event","name":"MinterAdded","inputs":[{"name":"minter","type":"address","indexed":true,"internalType":"address"}],"anonymous":false},{"type":"event","name":"MinterRemoved","inputs":[{"name":"minter","type":"address","indexed":true,"internalType":"address"}],"anonymous":false},{"type":"event","name":"OperatorAdded","inputs":[{"name":"operator","type":"address","indexed":true,"internalType":"address"}],"anonymous":false},{"type":"event","name":"OperatorBurn","inputs":[{"name":"operator","type":"address","indexed":true,"internalType":"address"},{"name":"user","type":"address","indexed":true,"internalType":"address"},{"name":"amount","type":"uint256","indexed":false,"internalType":"uint256"},{"name":"userTotal","type":"uint256","indexed":false,"internalType":"uint256"},{"name":"globalTotal","type":"uint256","indexed":false,"internalType":"uint256"}],"anonymous":false},{"type":"event","name":"OperatorRemoved","inputs":[{"name":"operator","type":"address","indexed":true,"internalType":"address"}],"anonymous":false},{"type":"event","name":"OwnershipTransferred","inputs":[{"name":"previousOwner","type":"address","indexed":true,"internalType":"address"},{"name":"newOwner","type":"address","indexed":true,"internalType":"address"}],"anonymous":false},{"type":"event","name":"RoleAdminChanged","inputs":[{"name":"role","type":"bytes32","indexed":true,"internalType":"bytes32"},{"name":"previousAdminRole","type":"bytes32","indexed":true,"internalType":"bytes32"},{"name":"newAdminRole","type":"bytes32","indexed":true,"internalType":"bytes32"}],"anonymous":false},{"type":"event","name":"RoleGranted","inputs":[{"name":"role","type":"bytes32","indexed":true,"internalType":"bytes32"},{"name":"account","type":"address","indexed":true,"internalType":"address"},{"name":"sender","type":"address","indexed":true,"internalType":"address"}],"anonymous":false},{"type":"event","name":"RoleRevoked","inputs":[{"name":"role","type":"bytes32","indexed":true,"internalType":"bytes32"},{"name":"account","type":"address","indexed":true,"internalType":"address"},{"name":"sender","type":"address","indexed":true,"internalType":"address"}],"anonymous":false},{"type":"event","name":"Transfer","inputs":[{"name":"from","type":"address","indexed":true,"internalType":"address"},{"name":"to","type":"address","indexed":true,"internalType":"address"},{"name":"value","type":"uint256","indexed":false,"internalType":"uint256"}],"anonymous":false},{"type":"error","name":"AccessControlBadConfirmation","inputs":[]},{"type":"error","name":"AccessControlUnauthorizedAccount","inputs":[{"name":"account","type":"address","internalType":"address"},{"name":"neededRole","type":"bytes32","internalType":"bytes32"}]},{"type":"error","name":"ERC20InsufficientAllowance","inputs":[{"name":"spender","type":"address","internalType":"address"},{"name":"allowance","type":"uint256","internalType":"uint256"},{"name":"needed","type":"uint256","internalType":"uint256"}]},{"type":"error","name":"ERC20InsufficientBalance","inputs":[{"name":"sender","type":"address","internalType":"address"},{"name":"balance","type":"uint256","internalType":"uint256"},{"name":"needed","type":"uint256","internalType":"uint256"}]},{"type":"error","name":"ERC20InvalidApprover","inputs":[{"name":"approver","type":"address","internalType":"address"}]},{"type":"error","name":"ERC20InvalidReceiver","inputs":[{"name":"receiver","type":"address","internalType":"address"}]},{"type":"error","name":"ERC20InvalidSender","inputs":[{"name":"sender","type":"address","internalType":"address"}]},{"type":"error","name":"ERC20InvalidSpender","inputs":[{"name":"spender","type":"address","internalType":"address"}]},{"type":"error","name":"OwnableInvalidOwner","inputs":[{"name":"owner","type":"address","internalType":"address"}]},{"type":"error","name":"OwnableUnauthorizedAccount","inputs":[{"name":"account","type":"address","internalType":"address"}]}],"bytecode":{"object":"0x608060405234801562000010575f80fd5b5060405162001a2338038062001a2383398101604081905262000033916200022d565b60408051808201825260068082526510d49151125560d21b602080840182905284518086019095529184529083015282916003620000728382620002fa565b506004620000818282620002fa565b5050506001600160a01b038116620000b257604051631e4fbdf760e01b81525f600482015260240160405180910390fd5b620000bd816200012c565b50620000ca5f826200017d565b50620000f77f9f2df0fed2c77648de5860a4cc508cd0818c85b8b8a1ab4ceeef8d981c8956a6826200017d565b50620001247f97667070c54ef182b0f5858b034beac1b6f3089aa2d3188bb1e8929f4fa9b929826200017d565b5050620003c6565b600580546001600160a01b038381166001600160a01b0319831681179093556040519116919082907f8be0079c531659141344cd1fd0a4f28419497f9722a3daafe3b4186f6b6457e0905f90a35050565b5f8281526006602090815260408083206001600160a01b038516845290915281205460ff1662000224575f8381526006602090815260408083206001600160a01b03861684529091529020805460ff19166001179055620001db3390565b6001600160a01b0316826001600160a01b0316847f2f8788117e7eff1d82e926ec794901d17c78024a50270940304540a733656f0d60405160405180910390a450600162000227565b505f5b92915050565b5f602082840312156200023e575f80fd5b81516001600160a01b038116811462000255575f80fd5b9392505050565b634e487b7160e01b5f52604160045260245ffd5b600181811c908216806200028557607f821691505b602082108103620002a457634e487b7160e01b5f52602260045260245ffd5b50919050565b601f821115620002f557805f5260205f20601f840160051c81016020851015620002d15750805b601f840160051c820191505b81811015620002f2575f8155600101620002dd565b50505b505050565b81516001600160401b038111156200031657620003166200025c565b6200032e8162000327845462000270565b84620002aa565b602080601f83116001811462000364575f84156200034c5750858301515b5f19600386901b1c1916600185901b178555620003be565b5f85815260208120601f198616915b82811015620003945788860151825594840194600190910190840162000373565b5085821015620003b257878501515f19600388901b60f8161c191681555b505060018460011b0185555b505050505050565b61164f80620003d45f395ff3fe608060405234801561000f575f80fd5b5060043610610213575f3560e01c8063715018a61161011f578063aa271e1a116100a9578063d539139311610079578063d539139314610492578063d547741f146104a6578063dd62ed3e146104b9578063f2fde38b146104f1578063f5b541a614610504575f80fd5b8063aa271e1a14610451578063ac8a584a14610464578063bcb378fa14610477578063d3c71cf11461048a575f80fd5b806395d89b41116100ef57806395d89b4114610409578063983b2d56146104115780639870d7fe14610424578063a217fddf14610437578063a9059cbb1461043e575f80fd5b8063715018a6146103c057806379cc6790146103c85780638da5cb5b146103db57806391d14854146103f6575f80fd5b80633092afd5116101a057806342966c681161017057806342966c68146103565780634aedb6d31461036957806364cb81041461037c5780636d70f7ae1461038557806370a0823114610398575f80fd5b80633092afd51461030e578063313ce5671461032157806336568abe1461033057806340c10f1914610343575f80fd5b806318160ddd116101e657806318160ddd1461029457806323b872dd1461029c578063248a9ca3146102af57806327ae0482146102d15780632f2ff15d146102f9575f80fd5b806301ffc9a71461021757806306fdde031461023f57806309354f8814610254578063095ea7b314610281575b5f80fd5b61022a610225366004611382565b610518565b60405190151581526020015b60405180910390f35b61024761054e565b60405161023691906113b0565b610273610262366004611417565b60076020525f908152604090205481565b604051908152602001610236565b61022a61028f366004611430565b6105de565b600254610273565b61022a6102aa366004611458565b6105f5565b6102736102bd366004611491565b5f9081526006602052604090206001015490565b6102736102df366004611417565b6001600160a01b03165f9081526007602052604090205490565b61030c6103073660046114a8565b610618565b005b61030c61031c366004611417565b610642565b60405160128152602001610236565b61030c61033e3660046114a8565b610700565b61030c610351366004611430565b610738565b61030c610364366004611491565b6107ec565b61030c610377366004611491565b6107f9565b61027360085481565b61022a610393366004611417565b6108e0565b6102736103a6366004611417565b6001600160a01b03165f9081526020819052604090205490565b61030c6108f8565b61030c6103d6366004611430565b61090b565b6005546040516001600160a01b039091168152602001610236565b61022a6104043660046114a8565b610921565b61024761094b565b61030c61041f366004611417565b61095a565b61030c610432366004611417565b610a88565b6102735f81565b61022a61044c366004611430565b610bbb565b61022a61045f366004611417565b610bc8565b61030c610472366004611417565b610be0565b61030c610485366004611430565b610ca4565b600854610273565b6102735f805160206115fa83398151915281565b61030c6104b43660046114a8565b610e27565b6102736104c73660046114d2565b6001600160a01b039182165f90815260016020908152604080832093909416825291909152205490565b61030c6104ff366004611417565b610e4b565b6102735f805160206115da83398151915281565b5f6001600160e01b03198216637965db0b60e01b148061054857506301ffc9a760e01b6001600160e01b03198316145b92915050565b60606003805461055d906114fa565b80601f0160208091040260200160405190810160405280929190818152602001828054610589906114fa565b80156105d45780601f106105ab576101008083540402835291602001916105d4565b820191905f5260205f20905b8154815290600101906020018083116105b757829003601f168201915b5050505050905090565b5f336105eb818585610e85565b5060019392505050565b5f33610602858285610e92565b61060d858585610f08565b506001949350505050565b5f8281526006602052604090206001015461063281610f65565b61063c8383610f6f565b50505050565b61064a611000565b6106615f805160206115fa83398151915282610921565b6106b25760405162461bcd60e51b815260206004820152601f60248201527f4352454449543a2041646472657373206973206e6f742061206d696e7465720060448201526064015b60405180910390fd5b6106c95f805160206115fa8339815191528261102d565b506040516001600160a01b038216907fe94479a9f7e1952cc78f2d6baab678adc1b772d936c6583def489e524cb66692905f90a250565b6001600160a01b03811633146107295760405163334bd91960e11b815260040160405180910390fd5b610733828261102d565b505050565b61074f5f805160206115fa83398151915233610921565b61079b5760405162461bcd60e51b815260206004820152601e60248201527f4352454449543a2043616c6c6572206973206e6f742061206d696e746572000060448201526064016106a9565b6107a58282611098565b816001600160a01b03167f8de2f08a37846cafc40abbdddb36ce9ea46df1cf86836123e0ce993f16891248826040516107e091815260200190565b60405180910390a25050565b6107f633826110cc565b50565b5f81116108185760405162461bcd60e51b81526004016106a990611532565b335f908152602081905260409020548111156108465760405162461bcd60e51b81526004016106a990611577565b61085033826110cc565b335f908152600760205260408120805483929061086e9084906115ba565b925050819055508060085f82825461088691906115ba565b9091555050335f81815260076020908152604091829020546008548351868152928301919091528183015290517f4cf2722e2db1b978c9ad3b4610049e9e1e21443575393cd1217267f1af16ff969181900360600190a250565b5f6105485f805160206115da83398151915283610921565b610900611000565b6109095f611100565b565b610913611000565b61091d82826110cc565b5050565b5f9182526006602090815260408084206001600160a01b0393909316845291905290205460ff1690565b60606004805461055d906114fa565b610962611000565b6001600160a01b0381166109ca5760405162461bcd60e51b815260206004820152602960248201527f4352454449543a2043616e6e6f7420616464207a65726f20616464726573732060448201526830b99036b4b73a32b960b91b60648201526084016106a9565b6109e15f805160206115fa83398151915282610921565b15610a3a5760405162461bcd60e51b815260206004820152602360248201527f4352454449543a204164647265737320697320616c72656164792061206d696e6044820152623a32b960e91b60648201526084016106a9565b610a515f805160206115fa83398151915282610f6f565b506040516001600160a01b038216907f6ae172837ea30b801fbfcdd4108aa1d5bf8ff775444fd70256b44e6bf3dfc3f6905f90a250565b610a90611000565b6001600160a01b038116610afa5760405162461bcd60e51b815260206004820152602b60248201527f4352454449543a2043616e6e6f7420616464207a65726f20616464726573732060448201526a30b99037b832b930ba37b960a91b60648201526084016106a9565b610b115f805160206115da83398151915282610921565b15610b6d5760405162461bcd60e51b815260206004820152602660248201527f4352454449543a204164647265737320697320616c726561647920616e206f7060448201526532b930ba37b960d11b60648201526084016106a9565b610b845f805160206115da83398151915282610f6f565b506040516001600160a01b038216907fac6fa858e9350a46cec16539926e0fde25b7629f84b5a72bffaae4df888ae86d905f90a250565b5f336105eb818585610f08565b5f6105485f805160206115fa83398151915283610921565b610be8611000565b610bff5f805160206115da83398151915282610921565b610c565760405162461bcd60e51b815260206004820152602260248201527f4352454449543a2041646472657373206973206e6f7420616e206f706572617460448201526137b960f11b60648201526084016106a9565b610c6d5f805160206115da8339815191528261102d565b506040516001600160a01b038216907f80c0b871b97b595b16a7741c1b06fed0c6f6f558639f18ccbce50724325dc40d905f90a250565b610cbb5f805160206115da83398151915233610921565b610d115760405162461bcd60e51b815260206004820152602160248201527f4352454449543a2043616c6c6572206973206e6f7420616e206f70657261746f6044820152603960f91b60648201526084016106a9565b5f8111610d305760405162461bcd60e51b81526004016106a990611532565b80610d4f836001600160a01b03165f9081526020819052604090205490565b1015610d6d5760405162461bcd60e51b81526004016106a990611577565b610d7782826110cc565b6001600160a01b0382165f9081526007602052604081208054839290610d9e9084906115ba565b925050819055508060085f828254610db691906115ba565b90915550506001600160a01b0382165f818152600760205260409081902054600854915133927f661b592c15cc184c8bffad3f1fc1f294b124b503ce79e2e905923ab89ec55a0492610e1b928792909283526020830191909152604082015260600190565b60405180910390a35050565b5f82815260066020526040902060010154610e4181610f65565b61063c838361102d565b610e53611000565b6001600160a01b038116610e7c57604051631e4fbdf760e01b81525f60048201526024016106a9565b6107f681611100565b6107338383836001611151565b6001600160a01b038381165f908152600160209081526040808320938616835292905220545f1981101561063c5781811015610efa57604051637dc7a0d960e11b81526001600160a01b038416600482015260248101829052604481018390526064016106a9565b61063c84848484035f611151565b6001600160a01b038316610f3157604051634b637e8f60e11b81525f60048201526024016106a9565b6001600160a01b038216610f5a5760405163ec442f0560e01b81525f60048201526024016106a9565b610733838383611223565b6107f68133611349565b5f610f7a8383610921565b610ff9575f8381526006602090815260408083206001600160a01b03861684529091529020805460ff19166001179055610fb13390565b6001600160a01b0316826001600160a01b0316847f2f8788117e7eff1d82e926ec794901d17c78024a50270940304540a733656f0d60405160405180910390a4506001610548565b505f610548565b6005546001600160a01b031633146109095760405163118cdaa760e01b81523360048201526024016106a9565b5f6110388383610921565b15610ff9575f8381526006602090815260408083206001600160a01b0386168085529252808320805460ff1916905551339286917ff6391f5c32d9c69d2a47ea670b442974b53935d1edc7fd64eb21e047a839171b9190a4506001610548565b6001600160a01b0382166110c15760405163ec442f0560e01b81525f60048201526024016106a9565b61091d5f8383611223565b6001600160a01b0382166110f557604051634b637e8f60e11b81525f60048201526024016106a9565b61091d825f83611223565b600580546001600160a01b038381166001600160a01b0319831681179093556040519116919082907f8be0079c531659141344cd1fd0a4f28419497f9722a3daafe3b4186f6b6457e0905f90a35050565b6001600160a01b03841661117a5760405163e602df0560e01b81525f60048201526024016106a9565b6001600160a01b0383166111a357604051634a1406b160e11b81525f60048201526024016106a9565b6001600160a01b038085165f908152600160209081526040808320938716835292905220829055801561063c57826001600160a01b0316846001600160a01b03167f8c5be1e5ebec7d5bd14f71427d1e84f3dd0314c0f7b2291e5b200ac8c7c3b9258460405161121591815260200190565b60405180910390a350505050565b6001600160a01b03831661124d578060025f82825461124291906115ba565b909155506112bd9050565b6001600160a01b0383165f908152602081905260409020548181101561129f5760405163391434e360e21b81526001600160a01b038516600482015260248101829052604481018390526064016106a9565b6001600160a01b0384165f9081526020819052604090209082900390555b6001600160a01b0382166112d9576002805482900390556112f7565b6001600160a01b0382165f9081526020819052604090208054820190555b816001600160a01b0316836001600160a01b03167fddf252ad1be2c89b69c2b068fc378daa952ba7f163c4a11628f55a4df523b3ef8360405161133c91815260200190565b60405180910390a3505050565b6113538282610921565b61091d5760405163e2517d3f60e01b81526001600160a01b0382166004820152602481018390526044016106a9565b5f60208284031215611392575f80fd5b81356001600160e01b0319811681146113a9575f80fd5b9392505050565b5f602080835283518060208501525f5b818110156113dc578581018301518582016040015282016113c0565b505f604082860101526040601f19601f8301168501019250505092915050565b80356001600160a01b0381168114611412575f80fd5b919050565b5f60208284031215611427575f80fd5b6113a9826113fc565b5f8060408385031215611441575f80fd5b61144a836113fc565b946020939093013593505050565b5f805f6060848603121561146a575f80fd5b611473846113fc565b9250611481602085016113fc565b9150604084013590509250925092565b5f602082840312156114a1575f80fd5b5035919050565b5f80604083850312156114b9575f80fd5b823591506114c9602084016113fc565b90509250929050565b5f80604083850312156114e3575f80fd5b6114ec836113fc565b91506114c9602084016113fc565b600181811c9082168061150e57607f821691505b60208210810361152c57634e487b7160e01b5f52602260045260245ffd5b50919050565b60208082526025908201527f4352454449543a20416d6f756e74206d75737420626520677265617465722074604082015264068616e20360dc1b606082015260800190565b60208082526023908201527f4352454449543a20496e73756666696369656e74204352454449542062616c616040820152626e636560e81b606082015260800190565b8082018082111561054857634e487b7160e01b5f52601160045260245ffdfe97667070c54ef182b0f5858b034beac1b6f3089aa2d3188bb1e8929f4fa9b9299f2df0fed2c77648de5860a4cc508cd0818c85b8b8a1ab4ceeef8d981c8956a6a26469706673582212203dd22015a5279196a7afd04fc5b7484fecf567fdca766df4003654386734db0c64736f6c63430008180033","linkReferences":{}},"methodIdentifiers":{"DEFAULT_ADMIN_ROLE()":"a217fddf","MINTER_ROLE()":"d5391393","OPERATOR_ROLE()":"f5b541a6","addMinter(address)":"983b2d56","addOperator(address)":"9870d7fe","allowance(address,address)":"dd62ed3e","approve(address,uint256)":"095ea7b3","balanceOf(address)":"70a08231","burn(uint256)":"42966c68","burnCredits(uint256)":"4aedb6d3","burnFrom(address,uint256)":"79cc6790","decimals()":"313ce567","getRoleAdmin(bytes32)":"248a9ca3","getTotalBurnedCredits()":"d3c71cf1","getUserBurnedCredits(address)":"27ae0482","grantRole(bytes32,address)":"2f2ff15d","hasRole(bytes32,address)":"91d14854","isMinter(address)":"aa271e1a","isOperator(address)":"6d70f7ae","mint(address,uint256)":"40c10f19","name()":"06fdde03","operatorBurn(address,uint256)":"bcb378fa","owner()":"8da5cb5b","removeMinter(address)":"3092afd5","removeOperator(address)":"ac8a584a","renounceOwnership()":"715018a6","renounceRole(bytes32,address)":"36568abe","revokeRole(bytes32,address)":"d547741f","supportsInterface(bytes4)":"01ffc9a7","symbol()":"95d89b41","totalBurnedCredits()":"64cb8104","totalSupply()":"18160ddd","transfer(address,uint256)":"a9059cbb","transferFrom(address,address,uint256)":"23b872dd","transferOwnership(address)":"f2fde38b","userBurnedCredits(address)":"09354f88"},"id":0}