{"abi":[{"type":"constructor","inputs":[{"name":"_name","type":"string","internalType":"string"},{"name":"_symbol","type":"string","internalType":"string"},{"name":"_maxSupply","type":"uint256","internalType":"uint256"},{"name":"_initialOwner","type":"address","internalType":"address"},{"name":"_creditToken","type":"address","internalType":"address"}],"stateMutability":"nonpayable"},{"type":"function","name":"CREDIT_PER_MINT","inputs":[],"outputs":[{"name":"","type":"uint256","internalType":"uint256"}],"stateMutability":"view"},{"type":"function","name":"DAILY_COOLDOWN","inputs":[],"outputs":[{"name":"","type":"uint256","internalType":"uint256"}],"stateMutability":"view"},{"type":"function","name":"approve","inputs":[{"name":"to","type":"address","internalType":"address"},{"name":"tokenId","type":"uint256","internalType":"uint256"}],"outputs":[],"stateMutability":"nonpayable"},{"type":"function","name":"balanceOf","inputs":[{"name":"owner","type":"address","internalType":"address"}],"outputs":[{"name":"","type":"uint256","internalType":"uint256"}],"stateMutability":"view"},{"type":"function","name":"canMint","inputs":[{"name":"user","type":"address","internalType":"address"}],"outputs":[{"name":"","type":"bool","internalType":"bool"}],"stateMutability":"view"},{"type":"function","name":"creditToken","inputs":[],"outputs":[{"name":"","type":"address","internalType":"contract CREDIT"}],"stateMutability":"view"},{"type":"function","name":"getApproved","inputs":[{"name":"tokenId","type":"uint256","internalType":"uint256"}],"outputs":[{"name":"","type":"address","internalType":"address"}],"stateMutability":"view"},{"type":"function","name":"getCreditBalance","inputs":[{"name":"user","type":"address","internalType":"address"}],"outputs":[{"name":"","type":"uint256","internalType":"uint256"}],"stateMutability":"view"},{"type":"function","name":"getCreditPerMint","inputs":[],"outputs":[{"name":"","type":"uint256","internalType":"uint256"}],"stateMutability":"pure"},{"type":"function","name":"getCurrentTokenId","inputs":[],"outputs":[{"name":"","type":"uint256","internalType":"uint256"}],"stateMutability":"view"},{"type":"function","name":"getLastMintTime","inputs":[{"name":"user","type":"address","internalType":"address"}],"outputs":[{"name":"","type":"uint256","internalType":"uint256"}],"stateMutability":"view"},{"type":"function","name":"getTimeUntilNextMint","inputs":[{"name":"user","type":"address","internalType":"address"}],"outputs":[{"name":"","type":"uint256","internalType":"uint256"}],"stateMutability":"view"},{"type":"function","name":"isApprovedForAll","inputs":[{"name":"owner","type":"address","internalType":"address"},{"name":"operator","type":"address","internalType":"address"}],"outputs":[{"name":"","type":"bool","internalType":"bool"}],"stateMutability":"view"},{"type":"function","name":"maxSupply","inputs":[],"outputs":[{"name":"","type":"uint256","internalType":"uint256"}],"stateMutability":"view"},{"type":"function","name":"mint","inputs":[],"outputs":[],"stateMutability":"nonpayable"},{"type":"function","name":"name","inputs":[],"outputs":[{"name":"","type":"string","internalType":"string"}],"stateMutability":"view"},{"type":"function","name":"owner","inputs":[],"outputs":[{"name":"","type":"address","internalType":"address"}],"stateMutability":"view"},{"type":"function","name":"ownerOf","inputs":[{"name":"tokenId","type":"uint256","internalType":"uint256"}],"outputs":[{"name":"","type":"address","internalType":"address"}],"stateMutability":"view"},{"type":"function","name":"renounceOwnership","inputs":[],"outputs":[],"stateMutability":"nonpayable"},{"type":"function","name":"safeTransferFrom","inputs":[{"name":"from","type":"address","internalType":"address"},{"name":"to","type":"address","internalType":"address"},{"name":"tokenId","type":"uint256","internalType":"uint256"}],"outputs":[],"stateMutability":"nonpayable"},{"type":"function","name":"safeTransferFrom","inputs":[{"name":"from","type":"address","internalType":"address"},{"name":"to","type":"address","internalType":"address"},{"name":"tokenId","type":"uint256","internalType":"uint256"},{"name":"data","type":"bytes","internalType":"bytes"}],"outputs":[],"stateMutability":"nonpayable"},{"type":"function","name":"setApprovalForAll","inputs":[{"name":"operator","type":"address","internalType":"address"},{"name":"approved","type":"bool","internalType":"bool"}],"outputs":[],"stateMutability":"nonpayable"},{"type":"function","name":"setBaseURI","inputs":[{"name":"baseURI","type":"string","internalType":"string"}],"outputs":[],"stateMutability":"nonpayable"},{"type":"function","name":"setCreditToken","inputs":[{"name":"_creditToken","type":"address","internalType":"address"}],"outputs":[],"stateMutability":"nonpayable"},{"type":"function","name":"supportsInterface","inputs":[{"name":"interfaceId","type":"bytes4","internalType":"bytes4"}],"outputs":[{"name":"","type":"bool","internalType":"bool"}],"stateMutability":"view"},{"type":"function","name":"symbol","inputs":[],"outputs":[{"name":"","type":"string","internalType":"string"}],"stateMutability":"view"},{"type":"function","name":"tokenURI","inputs":[{"name":"tokenId","type":"uint256","internalType":"uint256"}],"outputs":[{"name":"","type":"string","internalType":"string"}],"stateMutability":"view"},{"type":"function","name":"transferFrom","inputs":[{"name":"from","type":"address","internalType":"address"},{"name":"to","type":"address","internalType":"address"},{"name":"tokenId","type":"uint256","internalType":"uint256"}],"outputs":[],"stateMutability":"nonpayable"},{"type":"function","name":"transferOwnership","inputs":[{"name":"newOwner","type":"address","internalType":"address"}],"outputs":[],"stateMutability":"nonpayable"},{"type":"event","name":"Approval","inputs":[{"name":"owner","type":"address","indexed":true,"internalType":"address"},{"name":"approved","type":"address","indexed":true,"internalType":"address"},{"name":"tokenId","type":"uint256","indexed":true,"internalType":"uint256"}],"anonymous":false},{"type":"event","name":"ApprovalForAll","inputs":[{"name":"owner","type":"address","indexed":true,"internalType":"address"},{"name":"operator","type":"address","indexed":true,"internalType":"address"},{"name":"approved","type":"bool","indexed":false,"internalType":"bool"}],"anonymous":false},{"type":"event","name":"BaseURIUpdated","inputs":[{"name":"newBaseURI","type":"string","indexed":false,"internalType":"string"}],"anonymous":false},{"type":"event","name":"CreditTokenUpdated","inputs":[{"name":"newCreditToken","type":"address","indexed":true,"internalType":"address"}],"anonymous":false},{"type":"event","name":"NFTMinted","inputs":[{"name":"to","type":"address","indexed":true,"internalType":"address"},{"name":"tokenId","type":"uint256","indexed":true,"internalType":"uint256"},{"name":"creditsMinted","type":"uint256","indexed":false,"internalType":"uint256"}],"anonymous":false},{"type":"event","name":"OwnershipTransferred","inputs":[{"name":"previousOwner","type":"address","indexed":true,"internalType":"address"},{"name":"newOwner","type":"address","indexed":true,"internalType":"address"}],"anonymous":false},{"type":"event","name":"Transfer","inputs":[{"name":"from","type":"address","indexed":true,"internalType":"address"},{"name":"to","type":"address","indexed":true,"internalType":"address"},{"name":"tokenId","type":"uint256","indexed":true,"internalType":"uint256"}],"anonymous":false},{"type":"error","name":"ERC721IncorrectOwner","inputs":[{"name":"sender","type":"address","internalType":"address"},{"name":"tokenId","type":"uint256","internalType":"uint256"},{"name":"owner","type":"address","internalType":"address"}]},{"type":"error","name":"ERC721InsufficientApproval","inputs":[{"name":"operator","type":"address","internalType":"address"},{"name":"tokenId","type":"uint256","internalType":"uint256"}]},{"type":"error","name":"ERC721InvalidApprover","inputs":[{"name":"approver","type":"address","internalType":"address"}]},{"type":"error","name":"ERC721InvalidOperator","inputs":[{"name":"operator","type":"address","internalType":"address"}]},{"type":"error","name":"ERC721InvalidOwner","inputs":[{"name":"owner","type":"address","internalType":"address"}]},{"type":"error","name":"ERC721InvalidReceiver","inputs":[{"name":"receiver","type":"address","internalType":"address"}]},{"type":"error","name":"ERC721InvalidSender","inputs":[{"name":"sender","type":"address","internalType":"address"}]},{"type":"error","name":"ERC721NonexistentToken","inputs":[{"name":"tokenId","type":"uint256","internalType":"uint256"}]},{"type":"error","name":"OwnableInvalidOwner","inputs":[{"name":"owner","type":"address","internalType":"address"}]},{"type":"error","name":"OwnableUnauthorizedAccount","inputs":[{"name":"account","type":"address","internalType":"address"}]}],"bytecode":{"object":"0x608060405234801562000010575f80fd5b5060405162001a2738038062001a278339810160408190526200003391620001ec565b8185855f62000043838262000309565b50600162000052828262000309565b5050506001600160a01b0381166200008357604051631e4fbdf760e01b81525f600482015260240160405180910390fd5b6200008e81620000be565b5060099290925550600b80546001600160a01b0319166001600160a01b0390921691909117905550620003d59050565b600680546001600160a01b038381166001600160a01b0319831681179093556040519116919082907f8be0079c531659141344cd1fd0a4f28419497f9722a3daafe3b4186f6b6457e0905f90a35050565b634e487b7160e01b5f52604160045260245ffd5b5f82601f83011262000133575f80fd5b81516001600160401b03808211156200015057620001506200010f565b604051601f8301601f19908116603f011681019082821181831017156200017b576200017b6200010f565b816040528381526020925086602085880101111562000198575f80fd5b5f91505b83821015620001bb57858201830151818301840152908201906200019c565b5f602085830101528094505050505092915050565b80516001600160a01b0381168114620001e7575f80fd5b919050565b5f805f805f60a0868803121562000201575f80fd5b85516001600160401b038082111562000218575f80fd5b6200022689838a0162000123565b965060208801519150808211156200023c575f80fd5b506200024b8882890162000123565b945050604086015192506200026360608701620001d0565b91506200027360808701620001d0565b90509295509295909350565b600181811c908216806200029457607f821691505b602082108103620002b357634e487b7160e01b5f52602260045260245ffd5b50919050565b601f8211156200030457805f5260205f20601f840160051c81016020851015620002e05750805b601f840160051c820191505b8181101562000301575f8155600101620002ec565b50505b505050565b81516001600160401b038111156200032557620003256200010f565b6200033d816200033684546200027f565b84620002b9565b602080601f83116001811462000373575f84156200035b5750858301515b5f19600386901b1c1916600185901b178555620003cd565b5f85815260208120601f198616915b82811015620003a35788860151825594840194600190910190840162000382565b5085821015620003c157878501515f19600388901b60f8161c191681555b505060018460011b0185555b505050505050565b61164480620003e35f395ff3fe608060405234801561000f575f80fd5b50600436106101c6575f3560e01c806370a08231116100fe578063b88d4fde1161009e578063d5abeb011161006e578063d5abeb01146103b4578063e6357b93146103bd578063e985e9c5146103c6578063f2fde38b146103d9575f80fd5b8063b88d4fde14610353578063c2ba474414610366578063c6a5679b14610379578063c87b56dd146103a1575f80fd5b8063899e5d85116100d9578063899e5d85146103145780638da5cb5b1461032757806395d89b4114610338578063a22cb46514610340575f80fd5b806370a08231146102f1578063715018a61461030457806381fa248a1461030c575f80fd5b806342842e0e116101695780635fe7e879116101445780635fe7e879146102b15780636352211e146102b85780636a134bd9146102cb5780636add1b3f146102de575f80fd5b806342842e0e1461028357806355f804b31461029657806356189236146102a9575f80fd5b8063095ea7b3116101a4578063095ea7b3146102325780631249c58b1461024757806323b872dd1461024f57806327f9232614610262575f80fd5b806301ffc9a7146101ca57806306fdde03146101f2578063081812fc14610207575b5f80fd5b6101dd6101d83660046110c7565b6103ec565b60405190151581526020015b60405180910390f35b6101fa61043d565b6040516101e9919061112f565b61021a610215366004611141565b6104cc565b6040516001600160a01b0390911681526020016101e9565b610245610240366004611173565b6104f3565b005b610245610502565b61024561025d36600461119b565b61067c565b6102756102703660046111d4565b610705565b6040519081526020016101e9565b61024561029136600461119b565b61075d565b6102456102a4366004611274565b61077c565b600754610275565b600a610275565b61021a6102c6366004611141565b6107cb565b6102456102d93660046111d4565b6107d5565b6102756102ec3660046111d4565b610826565b6102756102ff3660046111d4565b610892565b6102456108d7565b610275600a81565b600b5461021a906001600160a01b031681565b6006546001600160a01b031661021a565b6101fa6108ea565b61024561034e3660046112b9565b6108f9565b6102456103613660046112f2565b610904565b6101dd6103743660046111d4565b61091c565b6102756103873660046111d4565b6001600160a01b03165f9081526008602052604090205490565b6101fa6103af366004611141565b610953565b61027560095481565b61027561012c81565b6101dd6103d4366004611369565b610997565b6102456103e73660046111d4565b6109c4565b5f6001600160e01b031982166380ac58cd60e01b148061041c57506001600160e01b03198216635b5e139f60e01b145b8061043757506301ffc9a760e01b6001600160e01b03198316145b92915050565b60605f805461044b9061139a565b80601f01602080910402602001604051908101604052809291908181526020018280546104779061139a565b80156104c25780601f10610499576101008083540402835291602001916104c2565b820191905f5260205f20905b8154815290600101906020018083116104a557829003601f168201915b5050505050905090565b5f6104d682610a01565b505f828152600460205260409020546001600160a01b0316610437565b6104fe828233610a39565b5050565b6009546007541061055a5760405162461bcd60e51b815260206004820152601960248201527f474d4e46543a204d617820737570706c7920726561636865640000000000000060448201526064015b60405180910390fd5b6105633361091c565b6105af5760405162461bcd60e51b815260206004820152601f60248201527f474d4e46543a204461696c79206d696e74206c696d69742072656163686564006044820152606401610551565b60078054905f6105be836113e6565b90915550506007546105d03382610a46565b335f8181526008602052604090819020429055600b5490516340c10f1960e01b81526004810192909252600a60248301526001600160a01b0316906340c10f19906044015f604051808303815f87803b15801561062b575f80fd5b505af115801561063d573d5f803e3d5ffd5b5050604051600a81528392503391507f3a8a89b59a31c39a36febecb987e0657ab7b7c73b60ebacb44dcb9886c2d5c8a9060200160405180910390a350565b6001600160a01b0382166106a557604051633250574960e11b81525f6004820152602401610551565b5f6106b1838333610aa7565b9050836001600160a01b0316816001600160a01b0316146106ff576040516364283d7b60e01b81526001600160a01b0380861660048301526024820184905282166044820152606401610551565b50505050565b6001600160a01b0381165f9081526008602052604081205480820361072c57505f92915050565b5f61073961012c836113fe565b905080421061074b57505f9392505050565b6107554282611411565b949350505050565b61077783838360405180602001604052805f815250610904565b505050565b610784610b99565b600a6107908282611468565b507f6741b2fc379fad678116fe3d4d4b9a1a184ab53ba36b86ad0fa66340b1ab41ad816040516107c0919061112f565b60405180910390a150565b5f61043782610a01565b6107dd610b99565b600b80546001600160a01b0319166001600160a01b0383169081179091556040517ff54d22f5324562c1ef29671aaa02383f48114f6726197caf37b895d76938ba3f905f90a250565b600b546040516370a0823160e01b81526001600160a01b0383811660048301525f9216906370a0823190602401602060405180830381865afa15801561086e573d5f803e3d5ffd5b505050506040513d601f19601f820116820180604052508101906104379190611524565b5f6001600160a01b0382166108bc576040516322718ad960e21b81525f6004820152602401610551565b506001600160a01b03165f9081526003602052604090205490565b6108df610b99565b6108e85f610bc6565b565b60606001805461044b9061139a565b6104fe338383610c17565b61090f84848461067c565b6106ff3385858585610cb5565b6001600160a01b0381165f9081526008602052604081205480158061094c575061094861012c826113fe565b4210155b9392505050565b606061095e82610a01565b50610967610ddd565b61097083610dec565b60405160200161098192919061153b565b6040516020818303038152906040529050919050565b6001600160a01b039182165f90815260056020908152604080832093909416825291909152205460ff1690565b6109cc610b99565b6001600160a01b0381166109f557604051631e4fbdf760e01b81525f6004820152602401610551565b6109fe81610bc6565b50565b5f818152600260205260408120546001600160a01b03168061043757604051637e27328960e01b815260048101849052602401610551565b6107778383836001610ee9565b6001600160a01b038216610a6f57604051633250574960e11b81525f6004820152602401610551565b5f610a7b83835f610aa7565b90506001600160a01b03811615610777576040516339e3563760e11b81525f6004820152602401610551565b5f828152600260205260408120546001600160a01b0390811690831615610ad357610ad3818486610fed565b6001600160a01b03811615610b0d57610aee5f855f80610ee9565b6001600160a01b0381165f90815260036020526040902080545f190190555b6001600160a01b03851615610b3b576001600160a01b0385165f908152600360205260409020805460010190555b5f8481526002602052604080822080546001600160a01b0319166001600160a01b0389811691821790925591518793918516917fddf252ad1be2c89b69c2b068fc378daa952ba7f163c4a11628f55a4df523b3ef91a4949350505050565b6006546001600160a01b031633146108e85760405163118cdaa760e01b8152336004820152602401610551565b600680546001600160a01b038381166001600160a01b0319831681179093556040519116919082907f8be0079c531659141344cd1fd0a4f28419497f9722a3daafe3b4186f6b6457e0905f90a35050565b6001600160a01b038216610c4957604051630b61174360e31b81526001600160a01b0383166004820152602401610551565b6001600160a01b038381165f81815260056020908152604080832094871680845294825291829020805460ff191686151590811790915591519182527f17307eab39ab6107e8899845ad3d59bd9653f200f220920489ca2b5937696c31910160405180910390a3505050565b6001600160a01b0383163b15610dd657604051630a85bd0160e11b81526001600160a01b0384169063150b7a0290610cf7908890889087908790600401611569565b6020604051808303815f875af1925050508015610d31575060408051601f3d908101601f19168201909252610d2e918101906115a5565b60015b610d98573d808015610d5e576040519150601f19603f3d011682016040523d82523d5f602084013e610d63565b606091505b5080515f03610d9057604051633250574960e11b81526001600160a01b0385166004820152602401610551565b805160208201fd5b6001600160e01b03198116630a85bd0160e11b14610dd457604051633250574960e11b81526001600160a01b0385166004820152602401610551565b505b5050505050565b6060600a805461044b9061139a565b6060815f03610e125750506040805180820190915260018152600360fc1b602082015290565b815f5b8115610e3b5780610e25816113e6565b9150610e349050600a836115d4565b9150610e15565b5f8167ffffffffffffffff811115610e5557610e556111ed565b6040519080825280601f01601f191660200182016040528015610e7f576020820181803683370190505b5090505b841561075557610e94600183611411565b9150610ea1600a866115e7565b610eac9060306113fe565b60f81b818381518110610ec157610ec16115fa565b60200101906001600160f81b03191690815f1a905350610ee2600a866115d4565b9450610e83565b8080610efd57506001600160a01b03821615155b15610fbe575f610f0c84610a01565b90506001600160a01b03831615801590610f385750826001600160a01b0316816001600160a01b031614155b8015610f4b5750610f498184610997565b155b15610f745760405163a9fbf51f60e01b81526001600160a01b0384166004820152602401610551565b8115610fbc5783856001600160a01b0316826001600160a01b03167f8c5be1e5ebec7d5bd14f71427d1e84f3dd0314c0f7b2291e5b200ac8c7c3b92560405160405180910390a45b505b50505f90815260046020526040902080546001600160a01b0319166001600160a01b0392909216919091179055565b610ff8838383611051565b610777576001600160a01b03831661102657604051637e27328960e01b815260048101829052602401610551565b60405163177e802f60e01b81526001600160a01b038316600482015260248101829052604401610551565b5f6001600160a01b038316158015906107555750826001600160a01b0316846001600160a01b0316148061108a575061108a8484610997565b806107555750505f908152600460205260409020546001600160a01b03908116911614919050565b6001600160e01b0319811681146109fe575f80fd5b5f602082840312156110d7575f80fd5b813561094c816110b2565b5f5b838110156110fc5781810151838201526020016110e4565b50505f910152565b5f815180845261111b8160208601602086016110e2565b601f01601f19169290920160200192915050565b602081525f61094c6020830184611104565b5f60208284031215611151575f80fd5b5035919050565b80356001600160a01b038116811461116e575f80fd5b919050565b5f8060408385031215611184575f80fd5b61118d83611158565b946020939093013593505050565b5f805f606084860312156111ad575f80fd5b6111b684611158565b92506111c460208501611158565b9150604084013590509250925092565b5f602082840312156111e4575f80fd5b61094c82611158565b634e487b7160e01b5f52604160045260245ffd5b5f67ffffffffffffffff8084111561121b5761121b6111ed565b604051601f8501601f19908116603f01168101908282118183101715611243576112436111ed565b8160405280935085815286868601111561125b575f80fd5b858560208301375f602087830101525050509392505050565b5f60208284031215611284575f80fd5b813567ffffffffffffffff81111561129a575f80fd5b8201601f810184136112aa575f80fd5b61075584823560208401611201565b5f80604083850312156112ca575f80fd5b6112d383611158565b9150602083013580151581146112e7575f80fd5b809150509250929050565b5f805f8060808587031215611305575f80fd5b61130e85611158565b935061131c60208601611158565b925060408501359150606085013567ffffffffffffffff81111561133e575f80fd5b8501601f8101871361134e575f80fd5b61135d87823560208401611201565b91505092959194509250565b5f806040838503121561137a575f80fd5b61138383611158565b915061139160208401611158565b90509250929050565b600181811c908216806113ae57607f821691505b6020821081036113cc57634e487b7160e01b5f52602260045260245ffd5b50919050565b634e487b7160e01b5f52601160045260245ffd5b5f600182016113f7576113f76113d2565b5060010190565b80820180821115610437576104376113d2565b81810381811115610437576104376113d2565b601f82111561077757805f5260205f20601f840160051c810160208510156114495750805b601f840160051c820191505b81811015610dd6575f8155600101611455565b815167ffffffffffffffff811115611482576114826111ed565b61149681611490845461139a565b84611424565b602080601f8311600181146114c9575f84156114b25750858301515b5f19600386901b1c1916600185901b178555610dd4565b5f85815260208120601f198616915b828110156114f7578886015182559484019460019091019084016114d8565b508582101561151457878501515f19600388901b60f8161c191681555b5050505050600190811b01905550565b5f60208284031215611534575f80fd5b5051919050565b5f835161154c8184602088016110e2565b8351908301906115608183602088016110e2565b01949350505050565b6001600160a01b03858116825284166020820152604081018390526080606082018190525f9061159b90830184611104565b9695505050505050565b5f602082840312156115b5575f80fd5b815161094c816110b2565b634e487b7160e01b5f52601260045260245ffd5b5f826115e2576115e26115c0565b500490565b5f826115f5576115f56115c0565b500690565b634e487b7160e01b5f52603260045260245ffdfea26469706673582212202ea5c630a4f001be9ca6a3ecd146bb47afec28e5c3b88ddd28498fa3fbda5f4964736f6c63430008180033","linkReferences":{}},"methodIdentifiers":{"CREDIT_PER_MINT()":"81fa248a","DAILY_COOLDOWN()":"e6357b93","approve(address,uint256)":"095ea7b3","balanceOf(address)":"70a08231","canMint(address)":"c2ba4744","creditToken()":"899e5d85","getApproved(uint256)":"081812fc","getCreditBalance(address)":"6add1b3f","getCreditPerMint()":"5fe7e879","getCurrentTokenId()":"56189236","getLastMintTime(address)":"c6a5679b","getTimeUntilNextMint(address)":"27f92326","isApprovedForAll(address,address)":"e985e9c5","maxSupply()":"d5abeb01","mint()":"1249c58b","name()":"06fdde03","owner()":"8da5cb5b","ownerOf(uint256)":"6352211e","renounceOwnership()":"715018a6","safeTransferFrom(address,address,uint256)":"42842e0e","safeTransferFrom(address,address,uint256,bytes)":"b88d4fde","setApprovalForAll(address,bool)":"a22cb465","setBaseURI(string)":"55f804b3","setCreditToken(address)":"6a134bd9","supportsInterface(bytes4)":"01ffc9a7","symbol()":"95d89b41","tokenURI(uint256)":"c87b56dd","transferFrom(address,address,uint256)":"23b872dd","transferOwnership(address)":"f2fde38b"},"id":1}