{"abi":[{"type":"constructor","inputs":[{"name":"_initialOwner","type":"address","internalType":"address"},{"name":"_creditToken","type":"address","internalType":"address"},{"name":"_initialConversionRate","type":"uint256","internalType":"uint256"}],"stateMutability":"nonpayable"},{"type":"fallback","stateMutability":"payable"},{"type":"receive","stateMutability":"payable"},{"type":"function","name":"calculateCreditAmount","inputs":[{"name":"ethAmount","type":"uint256","internalType":"uint256"}],"outputs":[{"name":"","type":"uint256","internalType":"uint256"}],"stateMutability":"view"},{"type":"function","name":"claimFunds","inputs":[],"outputs":[],"stateMutability":"nonpayable"},{"type":"function","name":"conversionRate","inputs":[],"outputs":[{"name":"","type":"uint256","internalType":"uint256"}],"stateMutability":"view"},{"type":"function","name":"creditToken","inputs":[],"outputs":[{"name":"","type":"address","internalType":"contract CREDIT"}],"stateMutability":"view"},{"type":"function","name":"getContractInfo","inputs":[],"outputs":[{"name":"creditTokenAddress","type":"address","internalType":"address"},{"name":"currentRate","type":"uint256","internalType":"uint256"},{"name":"contractBalance","type":"uint256","internalType":"uint256"}],"stateMutability":"view"},{"type":"function","name":"owner","inputs":[],"outputs":[{"name":"","type":"address","internalType":"address"}],"stateMutability":"view"},{"type":"function","name":"purchaseTokens","inputs":[],"outputs":[],"stateMutability":"payable"},{"type":"function","name":"renounceOwnership","inputs":[],"outputs":[],"stateMutability":"nonpayable"},{"type":"function","name":"setConversionRate","inputs":[{"name":"newRate","type":"uint256","internalType":"uint256"}],"outputs":[],"stateMutability":"nonpayable"},{"type":"function","name":"setCreditToken","inputs":[{"name":"newCreditToken","type":"address","internalType":"address"}],"outputs":[],"stateMutability":"nonpayable"},{"type":"function","name":"transferOwnership","inputs":[{"name":"newOwner","type":"address","internalType":"address"}],"outputs":[],"stateMutability":"nonpayable"},{"type":"event","name":"ConversionRateUpdated","inputs":[{"name":"oldRate","type":"uint256","indexed":false,"internalType":"uint256"},{"name":"newRate","type":"uint256","indexed":false,"internalType":"uint256"}],"anonymous":false},{"type":"event","name":"CreditTokenUpdated","inputs":[{"name":"oldToken","type":"address","indexed":true,"internalType":"address"},{"name":"newToken","type":"address","indexed":true,"internalType":"address"}],"anonymous":false},{"type":"event","name":"FundsClaimed","inputs":[{"name":"owner","type":"address","indexed":true,"internalType":"address"},{"name":"amount","type":"uint256","indexed":false,"internalType":"uint256"}],"anonymous":false},{"type":"event","name":"OwnershipTransferred","inputs":[{"name":"previousOwner","type":"address","indexed":true,"internalType":"address"},{"name":"newOwner","type":"address","indexed":true,"internalType":"address"}],"anonymous":false},{"type":"event","name":"TokensPurchased","inputs":[{"name":"buyer","type":"address","indexed":true,"internalType":"address"},{"name":"ethAmount","type":"uint256","indexed":false,"internalType":"uint256"},{"name":"creditAmount","type":"uint256","indexed":false,"internalType":"uint256"}],"anonymous":false},{"type":"error","name":"OwnableInvalidOwner","inputs":[{"name":"owner","type":"address","internalType":"address"}]},{"type":"error","name":"OwnableUnauthorizedAccount","inputs":[{"name":"account","type":"address","internalType":"address"}]}],"bytecode":{"object":"0x608060405234801561000f575f80fd5b506040516109f43803806109f483398101604081905261002e916101c2565b826001600160a01b03811661005d57604051631e4fbdf760e01b81525f60048201526024015b60405180910390fd5b61006681610158565b506001600160a01b0382166100c95760405162461bcd60e51b815260206004820152602360248201527f57415445523a20496e76616c69642043524544495420746f6b656e206164647260448201526265737360e81b6064820152608401610054565b5f811161012e5760405162461bcd60e51b815260206004820152602d60248201527f57415445523a20436f6e76657273696f6e2072617465206d757374206265206760448201526c0726561746572207468616e203609c1b6064820152608401610054565b600180546001600160a01b0319166001600160a01b039390931692909217909155600255506101fb565b5f80546001600160a01b038381166001600160a01b0319831681178455604051919092169283917f8be0079c531659141344cd1fd0a4f28419497f9722a3daafe3b4186f6b6457e09190a35050565b80516001600160a01b03811681146101bd575f80fd5b919050565b5f805f606084860312156101d4575f80fd5b6101dd846101a7565b92506101eb602085016101a7565b9150604084015190509250925092565b6107ec806102085f395ff3fe608060405260043610610099575f3560e01c80637ffdf53e116100605780637ffdf53e14610147578063899e5d851461015c5780638da5cb5b14610193578063ac307773146101af578063d2e80494146101c3578063f2fde38b146101e257005b80632e29a15b146100a25780633290ce29146100d45780636a134bd9146100dc578063715018a6146100fb5780637cc1f8671461010f57005b366100a057005b005b3480156100ad575f80fd5b506100c16100bc366004610730565b610201565b6040519081526020015b60405180910390f35b6100a0610229565b3480156100e7575f80fd5b506100a06100f6366004610747565b6103b1565b348015610106575f80fd5b506100a061046c565b34801561011a575f80fd5b50600154600254604080516001600160a01b039093168352602083019190915247908201526060016100cb565b348015610152575f80fd5b506100c160025481565b348015610167575f80fd5b5060015461017b906001600160a01b031681565b6040516001600160a01b0390911681526020016100cb565b34801561019e575f80fd5b505f546001600160a01b031661017b565b3480156101ba575f80fd5b506100a061047f565b3480156101ce575f80fd5b506100a06101dd366004610730565b6105c6565b3480156101ed575f80fd5b506100a06101fc366004610747565b610678565b5f670de0b6b3a7640000600254836102199190610774565b6102239190610797565b92915050565b5f341161028e5760405162461bcd60e51b815260206004820152602860248201527f57415445523a204d7573742073656e64204842415220746f20707572636861736044820152676520746f6b656e7360c01b60648201526084015b60405180910390fd5b5f670de0b6b3a7640000600254346102a69190610774565b6102b09190610797565b90505f81116103145760405162461bcd60e51b815260206004820152602a60248201527f57415445523a20416d6f756e7420746f6f20736d616c6c20746f20707572636860448201526961736520746f6b656e7360b01b6064820152608401610285565b6001546040516340c10f1960e01b8152336004820152602481018390526001600160a01b03909116906340c10f19906044015f604051808303815f87803b15801561035d575f80fd5b505af115801561036f573d5f803e3d5ffd5b505060408051348152602081018590523393507f8fafebcaf9d154343dad25669bfa277f4fbacd7ac6b0c4fed522580e040a0f3392500160405180910390a250565b6103b96106b5565b6001600160a01b03811661041b5760405162461bcd60e51b815260206004820152602360248201527f57415445523a20496e76616c69642043524544495420746f6b656e206164647260448201526265737360e81b6064820152608401610285565b600180546001600160a01b038381166001600160a01b0319831681179093556040519116919082907f72d66ed05244f4522e4779ce4be88ddd529722030678aeeca374da1bf7654557905f90a35050565b6104746106b5565b61047d5f6106e1565b565b6104876106b5565b47806104d55760405162461bcd60e51b815260206004820152601860248201527f57415445523a204e6f2066756e647320746f20636c61696d00000000000000006044820152606401610285565b5f80546040516001600160a01b039091169083908381818185875af1925050503d805f811461051f576040519150601f19603f3d011682016040523d82523d5f602084013e610524565b606091505b50509050806105755760405162461bcd60e51b815260206004820181905260248201527f57415445523a204661696c656420746f207472616e7366657220746f6b656e736044820152606401610285565b5f546001600160a01b03166001600160a01b03167fa65a8b4f7f65a1063243d7f7e9e4da00ff767599acf21549ef2548a45d1695ae836040516105ba91815260200190565b60405180910390a25050565b6105ce6106b5565b5f81116106335760405162461bcd60e51b815260206004820152602d60248201527f57415445523a20436f6e76657273696f6e2072617465206d757374206265206760448201526c0726561746572207468616e203609c1b6064820152608401610285565b600280549082905560408051828152602081018490527fa951dd7112ba7b7fbc01435d34365ae90f77c21ae3715041c3d0ccb9f6ed0daa910160405180910390a15050565b6106806106b5565b6001600160a01b0381166106a957604051631e4fbdf760e01b81525f6004820152602401610285565b6106b2816106e1565b50565b5f546001600160a01b0316331461047d5760405163118cdaa760e01b8152336004820152602401610285565b5f80546001600160a01b038381166001600160a01b0319831681178455604051919092169283917f8be0079c531659141344cd1fd0a4f28419497f9722a3daafe3b4186f6b6457e09190a35050565b5f60208284031215610740575f80fd5b5035919050565b5f60208284031215610757575f80fd5b81356001600160a01b038116811461076d575f80fd5b9392505050565b808202811582820484141761022357634e487b7160e01b5f52601160045260245ffd5b5f826107b157634e487b7160e01b5f52601260045260245ffd5b50049056fea264697066735822122062b9f79644c5b0bd255acb8e7803d23e1413a71ae13334a40b7246497ec78cd964736f6c63430008180033","linkReferences":{}},"methodIdentifiers":{"calculateCreditAmount(uint256)":"2e29a15b","claimFunds()":"ac307773","conversionRate()":"7ffdf53e","creditToken()":"899e5d85","getContractInfo()":"7cc1f867","owner()":"8da5cb5b","purchaseTokens()":"3290ce29","renounceOwnership()":"715018a6","setConversionRate(uint256)":"d2e80494","setCreditToken(address)":"6a134bd9","transferOwnership(address)":"f2fde38b"},"id":2}